:03000000020153A7
:0C015300787FE4F6D8FD75811502019A52
:10000300000102030405060708090A0B0C0D0E0F75
:1000130000000000000000000000000000000000DD
:1000230000000000000000000000000000000000CD
:100033000080204017FE1208811040A0404011B0FC
:10004300160E2110E110211021102210221004108D
:1000530001000100FFFE010001007FFC482444442D
:100063004FE4410441045FF4410441044114400856
:1000730000003FFE20002080208020802FFC208471
:1000830020842104210422042204440448289010DB
:1000930020282024202027FE2420FC20242427A4F9
:1000A30024A424A824A83C90E692492A0846108256
:1000B3000000000000000000000000000000FFFE40
:1000C300000000000000000000000000000000002D
:1000D30001000100010001003FF821082108210867
:1000E300210821083FF82108010001000100010057
:1000F30000000000000000000000000000000000FD
:1001030000000000000000000000000000000000EC
:1001130000000000000000000000000000000000DC
:1001230000000000000000000000000000000000CC
:1001330000000000000000000000000000000000BC
:1001430000000000000000000000000000000000AC
:0403C0000214000221
:0A03610090000393F5907F0A7E00E0
:10036B00D3EF9400EE940040147D0A7C00ED1D70D9
:0D037B00011CED4C70F7EF1F70E61E80E3D3
:010388002252
:10032F00ACF075F002A42DFFE5F03CCF2401CF34E3
:09033F00008F82F5831202F6FF23
:10034800E4FEEF30E004C2828002D282C280D28012
:08035800EFC313FF0EBE08EA1B
:01036000227A
:0602AF008B0F8A1089117B
:1002B500E4F512AB0FAA10A91175F002E512A4F529
:1002C5008285F0831202F6F51375F002E512A42477
:1002D50001F582E435F0120342AF13120348D281CF
:1002E500C281E5121203610512E512C3941040C3E1
:0102F50022E6
:0601DF008B088A09890A61
:1001E500E4F50BE4F50DC3E50D9515E495145048BC
:1001F500E4F50CAB08AA09A90A75F002E50BA4F50C
:100205008285F08375F002E50C1203231202F6F5E0
:100215000EE50B75F002A4FDE50C12032FAF0E12CF
:100225000348D281C281E50C120361050CE50CC3BC
:10023500941040BF050D80AE050BE50BC3947440CB
:01024500A216
:010246002295
:060247008B088A09890AF8
:10024D00750B74E4F50DC3E50D9515E49514504843
:10025D00E4F50CAB08AA09A90A75F002E50BA4F5A3
:10026D008285F08375F002E50C1203231202F6F578
:10027D000EE50B75F002A4FDE50C12032FAF0E1267
:10028D000348D281C281E50C120361050CE50CC354
:10029D00941040BF050D80AE150BE50BD3940050A7
:0102AD00A2AE
:0102AE00222D
:10038900E4FBE4FF120348E4FF120348D281C2816F
:10039900EB90000393F5907F017E0012036B0BBB7A
:0203A90010E062
:0103AB00222F
:1003AC007BFF7A0079131201DF7BFF7A007913123D
:0403BC00024780EC88
:10015F000203ACE493A3F8E493A34003F68001F207
:10016F0008DFF48029E493A3F85407240CC8C333A1
:10017F00C4540F4420C8834004F456800146F6DF70
:10018F00E4800B01020408102040809003C0E47E3D
:10019F00019360BCA3FF543F30E509541FFEE49365
:1001AF00A360010ECF54C025E060A840B8E493A32C
:1001BF00FAE493A3F8E493A3C8C582C8CAC583CA57
:1001CF00F0A3C8C582C8CAC583CADFE9DEE780BE0F
:0103C4000038
:1002F600BB010CE58229F582E5833AF583E02250BD
:1003060006E92582F8E622BBFE06E92582F8E22206
:0D031600E58229F582E5833AF583E4932220
:0C032300A42582F582E5F03583F58322E5
:00000001FF
