:0300000002012CCE
:0C012C00787FE4F6D8FD758110020138E0
:10000300000102030405060708090A0B0C0D0E0F75
:100013000008003CF9E0082010201120213C792041
:1000230009200920492031FC10002C0043FE8000E8
:100033000420041004100400FFFE048004880488D4
:10004300049008A008C0108211822282447E80009E
:0B00CC00120113D281C2817F017E006F
:1000D700D3EF9400EE940040147D0A7C00ED1D7070
:0D00E700011CED4C70F7EF1F70E61E80E36A
:0100F40022E9
:10011300E4FEEF30E004C2828002D282C280D28049
:08012300EFC313FF0EBE08EA52
:01012B0022B1
:060053008B088A09890AEE
:10005900E4F50BE50B90000393F590AB08AA09A909
:100069000A75F002E50BA4F58285F08312009FF56D
:100079000C75F002E50BA42401F582E435F0F58353
:1000890012009FFF120113AF0C1200CC050BE50BF8
:05009900C3941040BEFD
:01009E00223F
:0600F5008C0D8D0EAB071F
:1000FB00E4FAEA90000393F590AF0E120113AF03ED
:07010B001200CC0ABA10EB50
:0101120022CA
:0B0138007BFF7A00793312005380F542
:10009F00BB010CE58229F582E5833AF583E0225016
:1000AF0006E92582F8E622BBFE06E92582F8E22260
:0D00BF00E58229F582E5833AF583E493227A
:00000001FF
