:0300000002027386
:0C027300787FE4F6D8FD75811C0202BA09
:10000300000102030405060708090A0B0C0D0E0F75
:1000130000000000000000000000000000000000DD
:1000230000000000000000000000000000000000CD
:100033000080204017FE1208811040A0404011B0FC
:10004300160E2110E110211021102210221004108D
:1000530001000100FFFE010001007FFC482444442D
:100063004FE4410441045FF4410441044114400856
:1000730000003FFE20002080208020802FFC208471
:1000830020842104210422042204440448289010DB
:1000930020282024202027FE2420FC20242427A4F9
:1000A30024A424A824A83C90E692492A0846108256
:1000B3000000000000000000000000000000FFFE40
:1000C300000000000000000000000000000000002D
:1000D30001000100010001003FF821082108210867
:1000E300210821083FF82108010001000100010057
:1000F30000000000000000000000000000000000FD
:1001030000000000000000000000000000000000EC
:1001130000000000000000000000000000000000DC
:1001230000000000000000000000000000000000CC
:1001330000000000000000000000000000000000BC
:1001430000000000000000000000000000000000AC
:10015300200027FF24002410269025902490FCFEE5
:100163002490259026902412240127FE20000000CD
:10017300000100067FF84001420242044218426037
:100183005F80420042024201420243FC4000000001
:100193000408040CFFF8041104161FF811081104D5
:1001A30011F91002FFE4101890645382100F00003D
:1001B3000100010001000100010001000100010034
:1001C3000100010001000100010001000100000025
:1001D300000000000FF00820082008200820FFFF7F
:1001E30008200820082008200FF00000000000006D
:1001F30000000000000000000000000000000000FC
:1002030000000000000000000000000000000000EB
:1002130000000000000000000000000000000000DB
:1002230000000000000000000000000000000000CB
:1002330000000000000000000000000000000000BB
:1002430000000000000000000000000000000000AB
:10025300000000000000000000000000000000009B
:10026300000000000000000000000000000000008B
:04050100021B0002D7
:10045A00FFE49400FE74032FF58274003EF583E4F2
:07046A0093F5907F0A7E006C
:10047100D3EF9400EE940040147D0A7C00ED1D70D2
:0D048100011CED4C70F7EF1F70E61E80E3CC
:01048E00224B
:1004C400ACF075F002A42DFFE5F03CCF2401CF344D
:0904D400008F82F583120421FF60
:1004DD00E4FEEF30E004C2828002D282C280D2807C
:0804ED00EFC313FF0EBE08EA85
:0104F50022E4
:0603D7008B168A1789183D
:1003DD00E4F519AB16AA17A91875F002E519A4F5DD
:1003ED008285F083120421F51A75F002E519A42413
:1003FD0001F582E435F01204D7AF1A1204DDD28173
:10040D00C281C37410951912045A0519E519C394C4
:03041D001040C0CC
:0104200022B9
:0602FF008B088A09890A40
:10030500E4F50BE4F50DC3E50D951CE4951B504C88
:10031500E4F50CAB08AA09A90A75F002E50BA4F5EA
:100325008285F08375F002E50C12044E120421F566
:100335000EE50B75F002A4FDE50C1204C4AF0E1218
:1003450004DDD281C281C37410950C12045A050CC8
:10035500E50CC3941040BC050D02030B050BE50B22
:05036500C39474409EEA
:01036A002270
:06036B008B0F8A108911BE
:10037100751274E4F514C3E514951CE4951B504CF7
:10038100E4F513AB0FAA10A91175F002E512A4F55B
:100391008285F08375F002E51312044E120421F5F3
:1003A10015E51275F002A4FDE5131204C4AF151290
:1003B10004DDD281C281C37410951312045A05134E
:1003C100E513C3941040BC05140203771512E5121E
:0503D100D39400509ED2
:0103D6002204
:10048F00E4FBE4FF1204DDE4FF1204DDD281C2813C
:10049F00EBFFC374109FFFE49400FE74032FF582EB
:1004AF0074003EF583E493F5907F017E0012047192
:0404BF000BBB10CE95
:0104C3002216
:0B04F6007BFF7A0179531203D780F5D9
:10027F000204F6E493A3F8E493A34003F68001F29B
:10028F0008DFF48029E493A3F85407240CC8C33380
:10029F00C4540F4420C8834004F456800146F6DF4F
:1002AF00E4800B0102040810204080900501E47ED9
:1002BF00019360BCA3FF543F30E509541FFEE49344
:1002CF00A360010ECF54C025E060A840B8E493A30B
:1002DF00FAE493A3F8E493A3C8C582C8CAC583CA36
:1002EF00F0A3C8C582C8CAC583CADFE9DEE780BEEE
:0105050000F5
:10042100BB010CE58229F582E5833AF583E0225090
:1004310006E92582F8E622BBFE06E92582F8E222DA
:0D044100E58229F582E5833AF583E49322F4
:0C044E00A42582F582E5F03583F58322B9
:00000001FF
