:0300000002029366
:0C029300787FE4F6D8FD7581150202DAD0
:10000300000102030405060708090A0B0C0D0E0F75
:1000130000000000000000000000000000000000DD
:1000230000000000000000000000000000000000CD
:100033000080204017FE1208811040A0404011B0FC
:10004300160E2110E110211021102210221004108D
:1000530001000100FFFE010001007FFC482444442D
:100063004FE4410441045FF4410441044114400856
:1000730000003FFE20002080208020802FFC208471
:1000830020842104210422042204440448289010DB
:1000930020282024202027FE2420FC20242427A4F9
:1000A30024A424A824A83C90E692492A0846108256
:1000B3000000000000000000000000000000FFFE40
:1000C300000000000000000000000000000000002D
:1000D30001000100010001003FF821082108210867
:1000E300210821083FF82108010001000100010057
:1000F30000000000000000000000000000000000FD
:1001030000000000000000000000000000000000EC
:1001130000000000000000000000000000000000DC
:1001230000000000000000000000000000000000CC
:1001330000000000000000000000000000000000BC
:1001430000000000000000000000000000000000AC
:10015300000000000000000000000000000000009C
:10016300000000000000000000000000000000008C
:1001730008200620407E31800000208130862978C7
:10018300A50062002500297F3080208020800000A8
:10019300200027FF24002410269025902490FCFEA5
:1001A3002490259026902412240127FE200000008D
:1001B300000100067FF840014202420442184260F7
:1001C3005F80420042024201420243FC40000000C1
:1001D3000408040CFFF8041104161FF81108110495
:1001E30011F91002FFE4101890645382100F0000FD
:1001F30001000100010001000100010001000100F4
:1002030001000100010001000100010001000000E4
:10021300000000000FF00820082008200820FFFF3E
:1002230008200820082008200FF00000000000002C
:1002330000000000000000000000000000000000BB
:1002430000000000000000000000000000000000AB
:10025300000000000000000000000000000000009B
:10026300000000000000000000000000000000008B
:10027300000000000000000000000000000000007B
:10028300000000000000000000000000000000006B
:04052A0002140005B2
:10047A00FFE49400FE74032FF58274003EF583E4D2
:07048A0093F5907F057E0051
:10049100D3EF9400EE940040147D0A7C00ED1D70B2
:0D04A100011CED4C70F7EF1F70E61E80E3AC
:0104AE00222B
:1004E400ACF075F002A42DFFE5F03CCF2401CF342D
:0904F400008F82F583120441FF20
:1004FD00E4FEEF30E004C2828002D282C280D2805C
:08050D00EFC313FF0EBE08EA64
:0105150022C3
:0603F7008B0F8A10891132
:1003FD00E4F512AB0FAA10A91175F002E512A4F5E0
:10040D008285F083120441F51375F002E512A424E0
:10041D0001F582E435F01204F7AF131204FDD28119
:10042D00C281C3740F951212047A0512E512C3949A
:03043D001040C0AC
:010440002299
:06031F008B088A09890A1F
:10032500E4F50BE4F50DC3E50D9515E49514504C76
:10033500E4F50CAB08AA09A90A75F002E50BA4F5CA
:100345008285F08375F002E50C12046E120441F506
:100355000EE50B75F002A4FDE50C1204E4AF0E12D8
:1003650004FDD281C281C3740F950C12047A050C69
:10037500E50CC3941040BC050D02032B050BE50BE2
:05038500C39474409ECA
:01038A002250
:06038B008B088A09890AB3
:10039100750B74E4F50DC3E50D9515E49514504CFA
:1003A100E4F50CAB08AA09A90A75F002E50BA4F55E
:1003B1008285F08375F002E50C12046E120441F59A
:1003C1000EE50B75F002A4FDE50C1204E4AF0E126C
:1003D10004FDD281C281C3740F950C12047A050CFD
:1003E100E50CC3941040BC050D020397150BE50BFA
:0503F100D39400509EB2
:0103F60022E4
:1004AF00E4FBE4FF1204FDE4FF1204FDD281C281DC
:1004BF00EBFFC3740F9FFFE49400FE74032FF582CC
:1004CF0074003EF583E493F5907F017E0012049152
:0404DF000BBB10CE75
:0104E30022F6
:100516007BFF7A01795312031F7BFF7A017953120D
:04052600038B80ECD7
:10029F00020516E493A3F8E493A34003F68001F25A
:1002AF0008DFF48029E493A3F85407240CC8C33360
:1002BF00C4540F4420C8834004F456800146F6DF2F
:1002CF00E4800B010204081020408090052AE47E90
:1002DF00019360BCA3FF543F30E509541FFEE49324
:1002EF00A360010ECF54C025E060A840B8E493A3EB
:1002FF00FAE493A3F8E493A3C8C582C8CAC583CA16
:10030F00F0A3C8C582C8CAC583CADFE9DEE780BECD
:01052E0000CC
:10044100BB010CE58229F582E5833AF583E0225070
:1004510006E92582F8E622BBFE06E92582F8E222BA
:0D046100E58229F582E5833AF583E49322D4
:0C046E00A42582F582E5F03583F5832299
:00000001FF
