:03000000020800F3
:0C080000787FE4F6D8FD758116020847E9
:1009ED00000102030405060708090A0B0C0D0E0F82
:1009FD0080004000200010000800040002000100EB
:100A0D0000800040002000100008000400020001DA
:040A6500021501F481
:100A1D00D3EF9400EE940040147D327C00ED1D70F8
:0D0A2D00011CED4C70F7EF1F70E61E80E31A
:010A3A002299
:100A3B00E4FEEF30E004C2828002D282C280D28018
:080A4B00EFC313FF0EBE08EA21
:010A53002280
:100A5400AB07AF05120A3BAF03120A3BD281C28136
:010A6400226F
:1009B500AB07AA0674ED2DF58274093CF583E49323
:1009C500F590EB25E0FDEA33FC74FD2DF582740905
:1009D5003CF583E493FF74FE2DF58274093CF583A1
:0809E500E493FD7C00020A54BA
:100917001209687C007D1012088C8C088D09120959
:0C092700687C007D1012088C8C0A8D0B7F
:100933001209687C007D1012088C8C0D8D0E120933
:10094300687C007D1012088C8C0F8D10E4F50CADC3
:1009530010AC0FAF0EAE0D1209B5050CE50CC39428
:050963001440EC80CB04
:10080C00020917E493A3F8E493A34003F68001F2E2
:10081C0008DFF48029E493A3F85407240CC8C333ED
:10082C00C4540F4420C8834004F456800146F6DFBC
:10083C00E4800B0102040810204080900A65E47EDD
:10084C00019360BCA3FF543F30E509541FFEE493B1
:10085C00A360010ECF54C025E060A840B8E493A378
:10086C00FAE493A3F8E493A3C8C582C8CAC583CAA3
:10087C00F0A3C8C582C8CAC583CADFE9DEE780BE5B
:010A6900008C
:10088C00C2D5EC30E709B2D5E4C39DFDE49CFCEE87
:10089C0030E715B2D5E4C39FFFE49EFE1208C2C335
:1008AC00E49DFDE49CFC80031208C230D507C3E430
:0608BC009FFFE49EFE22F6
:10096800AC11AD12AE13AF147810EC4D4E4F7004AD
:100978007CA57DA5C3EC13FCED13FDEE13FEEF1370
:10098800FF5010EC64CCFCED644CFDEE644EFEEFC1
:1009980064CEFFD8DF8C118D128E138F14EE547F26
:0D09A800FE228E118F1274A5F513F5142296
:1008C200BC000BBE0029EF8DF084FFADF022E4CC1A
:1008D200F875F008EF2FFFEE33FEEC33FCEE9DECE3
:1008E200984005FCEE9DFE0FD5F0E9E4CEFD22ED29
:1008F200F8F5F0EE8420D21CFEADF075F008EF2F73
:10090200FFED33FD4007985006D5F0F222C398FD63
:050912000FD5F0EA2200
:00000001FF
