:030000000203C137
:0C03C100787FE4F6D8FD75812102040865
:10050300000102030405060708090A0B0C0D0E0F70
:1005130080004000200010000800040002000100D9
:1005230000800040002000100008000400020001C9
:04057B00022001F465
:10053300D3EF9400EE940040147D327C00ED1D70E7
:0D054300011CED4C70F7EF1F70E61E80E309
:010550002288
:10055100E4FEEF30E004C2828002D282C280D28007
:08056100EFC313FF0EBE08EA10
:01056900226F
:10056A00AB07AF05120551AF03120551D281C28103
:01057A00225E
:1004CB00AB07AA0674032DF58274053CF583E49300
:1004DB00F590EB25E0FDEA33FC74132DF5827405E2
:1004EB003CF583E493FF74142DF58274053CF5837E
:0804FB00E493FD7C0002056A98
:0C0324008E168F178C188D198A1A8B1BEF
:10033000C3E517951BF51DE516951AF51CE5172560
:100340001BFFE516351AFEC3E51D9FE51C9E507088
:10035000C3E51D9517FDE51C9516FCAF05FE1202C1
:100360005AAA06AB07AC1AAD1BAE1AAF1B12025A43
:10037000EF2BFFEE3ACF2519FDEF3518FCE4120103
:100380000012027EC004C005C006C007AC1AAD1B37
:10039000EC120100A804A905AA06AB07D007D006F5
:1003A000D005D004120006120139AD07AC06AF1D0E
:1003B000AE1C1204CB051DE51D7082051C02033D19
:0103C000221A
:10044D00750A00750B08750C00750D08750E007595
:10045D000F07C3E50B950FF509E50A950EF508E5B0
:10046D000B250FFFE50A350EFEC3E5099FE5089E36
:10047D0050CEC3E509950BFDE508950AFCAF05FEC9
:10048D0012025AAA06AB07AC0EAD0FAE0EAF0F128D
:10049D00025AEF2BFFEE3ACF250DFDEF350CFCE4A4
:1004AD0012010012027E120139AD07AC06AF09AE82
:0E04BD00081204CB0509E50970A5050880A109
:100003000201A5E86480F8E933E83360110460F085
:10001300ED33EC337009E8FCE9FDEAFEEBFF220463
:1000230060DED3EB9FEA9EE99DE8C2E78CF0C2F75E
:1000330095F0400CE8CCF8E9CDF9EACEFAEBCFFB2A
:1000430012017085D0F05804700320D5B3E8047012
:10005300075002B2D50201AF92D5EC0460F7E4CCAD
:10006300C0E0C398F8603B94186008400DD0E0FBF3
:10007300020187E4FBFAC9FC8028E830E406E4C9FE
:10008300FBE4CAFCE830E305E4C9CACBFCE8540747
:100093006010F8C3E913F9EA13FAEB13FBEC13FC52
:1000A300D8F130F52FC3E49CFCEF9BFFEE9AFEEDF5
:1000B30099FDD0E0FBEF4E4D4C701222DB030201A1
:1000C300ACEC2CFCEF33FFEE33FEED33FDED30E70C
:1000D300EB020187EF2BFFEE3AFEED39FDD0E0FB9B
:1000E30050130BBB00030201AFED13FDEE13FEEF44
:0800F30013FFEC13FC0201876E
:1000FB0075F020800E75F010800575F0087D007E80
:10010B00007F003392D530D50312026CEC334010D4
:10011B00EF33FFEE33FEED33FDEC33FCD5F0ED2288
:0E012B00E5F0247EA2D513CC92E7CDCEFF22C4
:10013900EDD2E7CD33EC3392D524814006E4FFFEBE
:10014900FDFC22FCE4CFCECDCC24E0501174FF801D
:10015900EDC3CC13CCCD13CDCE13CECF13CF0470BA
:07016900F030D5DE02026C4C
:10027A000201A522EDA2E7D2E7F9EC3340F260F3DE
:10028A00B4FF08ED547F70E80201AFF82481C2E0A0
:10029A00C0E0F40428FAC313FCED92E7FD8C128D3A
:1002AA00138E148F15EEA2E7E9BA7F02C313340046
:1002BA009400FA75F091A4E5F013F494FE8AF0A480
:1002CA0033E5F033248CD313FDE492E7FE7F007C00
:1002DA003F758302ECC0E0F8EDC0E0F9EEC0E0FA49
:1002EA00EFC0E0FBAC12AD13AE14AF151201BDD0D6
:1002FA00E0FBD0E0FAD0E0F9D0E0F812000AED64B1
:10030A0080FD30E7011CD583CBED33CC33F8D0E048
:0A031A00A2E71328C313CC13FD2241
:10017000E9D2E7C933E833F892D5EDD2E7CD33ECD5
:0701800033FC5002B2D5224E
:10018700EC30E7100FBF000C0EBE00080DBD0004D9
:100197000BEB6014A2D5EB13FCED92E7FD2274FF85
:1001A700FCFDFEFF22E480F8A2D574FF13FC7D80DE
:0301B700E480EFF2
:1001BA000201AFEC5D046005E8590470030201A571
:1001CA00120170580460F6EC4860F2EC7004FDFE0F
:1001DA00FF22C860DB2481C85009C3986002500618
:1001EA000201AC9850CAF582E9294B4A7005AB82E4
:1001FA0002019B75F0007C1A7880C3EF9BEE9AEDA2
:10020A0099400DC3EF9BFFEE9AFEED99FDE842F08F
:10021A00DC23ACF0D0E0FFD0E0FED0E0FDAB8220E2
:10022A00E7101BEB60BAEC2CFCEF33FFEE33FEED6C
:10023A0033FD020187E803F830E705C0F075F000E6
:10024A00EF2FFFEE33FEED33FD40B830E7C280AA50
:1003CD0002044DE493A3F8E493A34003F68001F2F5
:1003DD0008DFF48029E493A3F85407240CC8C33331
:1003ED00C4540F4420C8834004F456800146F6DF00
:1003FD00E4800B010204081020408090057BE47E10
:10040D00019360BCA3FF543F30E509541FFEE493F4
:10041D00A360010ECF54C025E060A840B8E493A3BB
:10042D00FAE493A3F8E493A3C8C582C8CAC583CAE6
:10043D00F0A3C8C582C8CAC583CADFE9DEE780BE9E
:01057F00007B
:10025A00EF8DF0A4A8F0CF8CF0A428CE8DF0A42EB8
:02026A00FE2272
:0E026C00C3E49FFFE49EFEE49DFDE49CFC22A3
:00000001FF
