:030000000209757D
:0C097500787FE4F6D8FD7581190209BCFA
:100B3F00000102030405060708090A0B0C0D0E0F2E
:100B4F008000400020001000080004000200010097
:100B5F000080004000200010000800040002000187
:040BF00002180001E6
:100BB900D3EF9400EE940040147D0A7C00ED1D7083
:0D0BC900011CED4C70F7EF1F70E61E80E37D
:010BD60022FC
:100BD700E4FEEF30E004C2828002D282C280D2807B
:080BE700EFC313FF0EBE08EA84
:010BEF0022E3
:100B6F0025E02450F582E4340BF583E493FD7C00FB
:100B7F00AB07AF05120BD7AF03120BD7D281C281D0
:070B8F007F0A7E00020BB992
:100B9600E4FBEB900B3F93F590E4FF120BD7E4FFD9
:100BA600120BD7D281C2817F017E00120BB90BBB1B
:020BB60010E04D
:010BB800221A
:100B0700AB07AA06743F2DF582740B3CF583E4937B
:100B1700F590EB25E0FDEA33FC744F2DF582740B5D
:100B27003CF583E493FF74502DF582740B3CF583F9
:080B3700E493FD7C00020B7F3A
:060A88008C168D17A90772
:100A8E00743F2BF582740B3AF583E493F590E517DA
:100A9E002401FFE43516FEE9C39FEE6480F87480EE
:100AAE00985016E925E0244FF582E4340BF583E4E3
:090ABE0093FFE9120B6F0980D5CA
:010AC700220C
:0A0AC8008C128D138A148B15AE07F3
:100AD200EE25E0244FF582E4340BF583E493FFEE38
:100AE200120B6FAF13E5152401FDE43514FCEFC3BF
:100AF2009DEC6480F8748098500AEF900B3F93F558
:040B0200900F80E1EF
:010B060022CC
:0A0A01008F0A8C0B8D0C8A0D8B0EF2
:100A0B00850A11E50E2401FFE4350DFEC3E5119FA8
:100A1B00EE6480F87480985063AF0A7E00AC0FAD23
:100A2B00101208D8AA06AB07AC0DAD0EAE0BAF0C6F
:100A3B001208D8C3EF9BFFEE9AFEC3E50E950AFD95
:100A4B00E50D9400FC1208EAAA06AB07C3E5109566
:100A5B000CFFE50F950BFEAD117C001208D8C3E51A
:100A6B000E950AFDE50D9CFC1208EAEF2BFDEE3A04
:0C0A7B00FCAF117E00120B0705118087F4
:010A8700224C
:1008000075080FE4F509750F008508107B0F7A0055
:100810007D0F7C00E4FF120A010509E509C394027B
:1008200040E41508E508D3940050D875080FE4F5A6
:1008300009E508FB7A00E4F50FF5107D0FFCFF12C7
:100840000A010509E509C3940240E61508E508D345
:10085000940050DAE4F508E4F509E508FD7C00753C
:100860000F0075100F7B0F7A00E4FF120A010509D3
:10087000E509C3940240E30508E508C3941040D796
:10088000E4F508E4F509E508FD7C00E4F50FF51052
:100890007B0FFAFF120A010509E509C3940240E63D
:1008A0000508E508C3941040DAE4F508E508C394A8
:1008B000104003020800E4F509E508FB7A00750F13
:1008C0000075100FE4FDFCFF120A010509E509C3DC
:0808D000940240E5050880D404
:10098100020800E493A3F8E493A34003F68001F284
:1009910008DFF48029E493A3F85407240CC8C33377
:1009A100C4540F4420C8834004F456800146F6DF46
:1009B100E4800B0102040810204080900BF0E47EDB
:1009C100019360BCA3FF543F30E509541FFEE4933B
:1009D100A360010ECF54C025E060A840B8E493A302
:1009E100FAE493A3F8E493A3C8C582C8CAC583CA2D
:1009F100F0A3C8C582C8CAC583CADFE9DEE780BEE5
:010BF4000000
:1008D800EF8DF0A4A8F0CF8CF0A428CE8DF0A42E34
:0208E800FE22EE
:1008EA00C2D5EC30E709B2D5E4C39DFDE49CFCEE29
:1008FA0030E715B2D5E4C39FFFE49EFE120920C378
:10090A00E49DFDE49CFC800312092030D507C3E472
:06091A009FFFE49EFE2297
:10092000BC000BBE0029EF8DF084FFADF022E4CCBB
:10093000F875F008EF2FFFEE33FEEC33FCEE9DEC84
:10094000984005FCEE9DFE0FD5F0E9E4CEFD22EDCA
:10095000F8F5F0EE8420D21CFEADF075F008EF2F14
:10096000FFED33FD4007985006D5F0F222C398FD05
:050970000FD5F0EA22A2
:00000001FF
