:03000000020800F3
:0C080000787FE4F6D8FD75810C020847F3
:10091F00000102030405060708090A0B0C0D0E0F50
:10092F0080004000200010000800040002000100B9
:10093F0000800040002000100008000400020001A9
:04099700020B01F45A
:10094F00D3EF9400EE940040147D327C00ED1D70C7
:0D095F00011CED4C70F7EF1F70E61E80E3E9
:01096C002268
:10096D00E4FEEF30E004C2828002D282C280D280E7
:08097D00EFC313FF0EBE08EAF0
:01098500224F
:10098600AB07AF0512096DAF0312096DD281C281A3
:01099600223E
:1008E700AB07AA06741F2DF58274093CF583E493C0
:1008F700F590EB25E0FDEA33FC742F2DF5827409A2
:100907003CF583E493FF74302DF58274093CF5833D
:08091700E493FD7C0002098657
:10088C00E4F508E50890091F93F590E4F509F50ADD
:10089C00E50A25E0FDE50933FC742F2DF58274097A
:1008AC003CF583E493FF74302DF58274093CF58399
:1008BC00E493FD7C001209867FC87E0012094F0567
:1008CC000AE50A70020509C39410E509940040C0BA
:0B08DC000508E508C3941040AA80A5A1
:10080C0002088CE493A3F8E493A34003F68001F26E
:10081C0008DFF48029E493A3F85407240CC8C333ED
:10082C00C4540F4420C8834004F456800146F6DFBC
:10083C00E4800B0102040810204080900997E47EAC
:10084C00019360BCA3FF543F30E509541FFEE493B1
:10085C00A360010ECF54C025E060A840B8E493A378
:10086C00FAE493A3F8E493A3C8C582C8CAC583CAA3
:10087C00F0A3C8C582C8CAC583CADFE9DEE780BE5B
:01099B00005B
:00000001FF
