:03000000020ACB26
:0C0ACB00787FE4F6D8FD75810F020B1255
:10080000000102030405060708090A0B0C0D0E0F70
:100810000080204017FE1208811040A0404011B017
:10082000160E2110E11021102110221022100410A8
:1008300001000100FFFE010001007FFC4824444448
:100840004FE4410441045FF4410441044114400871
:1008500000003FFE20002080208020802FFC20848C
:1008600020842104210422042204440448289010F6
:1008700020282024202027FE2420FC20242427A414
:1008800024A424A824A83C90E692492A0846108271
:100890000000000000000000000000000000FFFE5B
:1008A0000000000000000000000000000000000048
:1008B00001000100010001003FF821082108210882
:1008C000210821083FF82108010001000100010072
:1008D0000000000000000000000000000000018097
:1008E0000180000000000000000000000000000087
:1008F00000000000000000000000000003C00240F3
:10090000024003C0000000000000000000000000E2
:100910000000000000000000000007E0042005A027
:1009200005A0042007E00000000000000000000017
:1009300000000000000000000FF008100BD00A506B
:100940000A500BD008100FF000000000000000005B
:100950000000000000001FF8100817E8142815A870
:1009600015A8142817E810081FF800000000000060
:10097000000000003FFC20042FF428142BD42A543C
:100980002A542BD428142FF420043FFC000000002C
:10099000FFFF8001BFFDA005AFF5A815ABD5AA5597
:1009A000AA55ABD5A815AFF5A005BFFD8001FFFF87
:1009B00000007FFE40025FFA500A57EA542A55AA07
:1009C00055AA542A57EA500A5FFA40027FFE0000F7
:040C3000020E0002AE
:100BDD00D3EF9400EE940040147D0A7C00ED1D705F
:0D0BED00011CED4C70F7EF1F70E61E80E359
:010BFA0022D8
:100C1700E4FEEF30E004C2828002D282C280D2803A
:080C2700EFC313FF0EBE08EA43
:010C2F0022A2
:100BFB00E4FDED90080093F590E4FF120C17E4FF71
:0B0C0B00120C17D281C2810DBD10E752
:010C160022BB
:060B57008B098A0A890BDC
:100B5D00E4F50CAB09AA0AA90B75F002E50CA42467
:100B6D0001F582E435F0F583120BB0F50D75F00249
:100B7D00E50CA4F58285F083120BB0FBAF0D120CC2
:100B8D0017AF03120C17D281C281E50C90080093A8
:100B9D00F5907F0A7E00120BDD050CE50CC3941059
:020BAD0040B155
:010BAF002223
:1009D000E4F508C3E508950FE50E6480F874809887
:1009E000500D7BFF7A0879D0120B57050880E4E49C
:1009F000F508C3E508950FE50E6480F874809850FB
:100A00000D7BFF7A0879F0120B57050880E4E4F5B6
:100A100008C3E508950FE50E6480F8748098500DC2
:100A20007BFF7A097910120B57050880E4E4F5087A
:100A3000C3E508950FE50E6480F8748098500D7B2F
:100A4000FF7A097930120B57050880E4E4F508C3F2
:100A5000E508950FE50E6480F8748098500D7BFFD3
:100A60007A097950120B57050880E4E4F508C3E5CC
:100A700008950FE50E6480F8748098500D7BFF7A1E
:100A8000097970120B57050880E4E4F508C3E508FE
:100A9000950FE50E6480F8748098500D7BFF7A09FD
:100AA0007990120B57050880E4E4F508C3E5089532
:100AB0000FE50E6480F874809840030209D07BFF34
:0B0AC0007A0979B0120B57050880E19D
:100AD7000209D0E493A3F8E493A34003F68001F25C
:100AE70008DFF48029E493A3F85407240CC8C33320
:100AF700C4540F4420C8834004F456800146F6DFEF
:100B0700E4800B0102040810204080900C30E47E42
:100B1700019360BCA3FF543F30E509541FFEE493E3
:100B2700A360010ECF54C025E060A840B8E493A3AA
:100B3700FAE493A3F8E493A3C8C582C8CAC583CAD5
:100B4700F0A3C8C582C8CAC583CADFE9DEE780BE8D
:010C340000BF
:100BB000BB010CE58229F582E5833AF583E02250FA
:100BC00006E92582F8E622BBFE06E92582F8E22244
:0D0BD000E58229F582E5833AF583E493225E
:00000001FF
